:100000000C94C7000C94E6000C94E6000C94E600F7
:100010000C94E6000C94E6000C94E6000C94E600C8
:100020000C94E6000C94E6000C94E6000C94E600B8
:100030000C94E6000C94E6000C94E6000C94E600A8
:100040000C94E6000C94E6000C94E6000C94E60098
:100050000C94E6000C94E6000C94E6000C94E60088
:100060000C94E6000C94E6000C94E6000C94E60078
:100070000C94E6000C94E6000C94E6000C94E60068
:100080000C94E6000C94E6000C94E6006E616E00A1
:10009000696E660000407A10F35A00A0724E18098B
:1000A0000010A5D4E80000E87648170000E40B54DF
:1000B000020000CA9A3B000000E1F50500008096AE
:1000C0009800000040420F000000A08601000000E0
:1000D000102700000000E80300000000640000009A
:1000E00000000A00000000000100000000002C7663
:1000F000D888DC674F0823DFC1DFAE59E1B1B7967E
:10010000E5E3E453C63AE651997696E8E6C28426DA
:10011000EB898C9B62ED407C6FFCEFBC9C9F40F2B6
:10012000BAA56FA5F490055A2AF75C936B6CF96732
:100130006DC11BFCE0E40D47FEF520E6B500D0EDF7
:10014000902E0300943577050080841E080000205F
:100150004E0A000000C80C333333330F986E1283FD
:100160001141EF8D2114893BE65516CFFEE6DB18D1
:10017000D1844B381BF77C1D901DA4BBE424203296
:1001800084725E228100C9F124ECA1E53D2711248F
:100190001FBECFEFD0E4DEBFCDBF11E0A0E0B1E0E5
:1001A000ECEDF2E100E00BBF02C007900D92A0322F
:1001B000B107D9F711E0A0E2B1E001C01D92A03271
:1001C000B107E1F70E945E020C946C090C940000E8
:1001D00080EB84B980E58CBD08958EBD0DB407FE1B
:1001E000FDCF8EB50895EF92FF920F931F93CF939B
:1001F000DF93CDB7DEB72A970FB6F894DEBF0FBEF8
:10020000CDBF2C9A85B115B88CE00E94ED0080E03E
:100210000E94ED00082F10E080E00E94ED002C9A73
:100220000F731070102F00279801280F311DC9017E
:100230008E010F5F1F4FB8014AE050E00E946E0828
:10024000C8010E941502E0E0EE2EE1E0FE2EC7019B
:100250000E9415028DB79EB708970FB6F8949EBFFF
:100260000FBE8DBFEDB7FEB73196ADB7BEB71296D4
:100270001C930E93119783E091E09383828380E037
:1002800090E0DC0184839583A683B7830E94BB083A
:100290002DB73EB7285F3F4F0FB6F8943EBF0FBE55
:1002A0002DBFC8010E94150281E490E00E94070260
:1002B000C7010E9415022A960FB6F894DEBF0FBE42
:1002C000CDBFDF91CF911F910F91FF90EF900895D7
:1002D000BC0180E090E00E94DA0221E03AE040EACE
:1002E0005AE30E9468032AE037ED43EA5CE30E9488
:1002F0007502462F572F682F792FCB01BA01089529
:10030000089583E38093CC001092CD00539A88E146
:100310008093C90086E08093CA0008959091C80038
:1003200095FFFCCF8093CE0008958091C80087FF91
:10033000FCCF8091CE0008958FE90E948E0182E863
:100340000E948E018FE90E948E0183E80E948E0137
:1003500085EA0E948E010E9495018A3AE1F708958C
:10036000EF92FF920F931F93CF93DF93F82EE92E16
:100370008EEF0E948E010F2D1E2DC0E0D0E006C032
:10038000F80181918F010E948E012196AF2DBE2D23
:10039000FD0101900020E9F73197EA1BFB0BCE1716
:1003A000DF0770F3DF91CF911F910F91FF90EF90D6
:1003B00008958FE90E948E0181E80E948E010895C0
:1003C0001F93CF93DF930F92CDB7DEB7182F8FE92E
:1003D00069830E948E018FEF0E948E01812F0E94FF
:1003E0008E016981862F0E948E010F90DF91CF913F
:1003F0001F91089583E38093C4001092C500519A21
:1004000088E18093C10086E08093C20008959091B6
:10041000C00095FFFCCF8093C60008958091C00076
:1004200087FFFCCF8091C6000895CF92DF92FF92A4
:100430000F931F93CF93DF930F92CDB7DEB7F82EB4
:10044000082F192FCC24DD240AC0F80181918F01D7
:1004500099830E9407020894C11CD11C9981AF2D79
:10046000B92FFD0101900020E9F73197EA1BFB0B42
:10047000CE16DF0650F30F90DF91CF911F910F91B1
:10048000FF90DF90CF90089581E088B98FE794E8DE
:10049000AEE181509040A040E1F700C0000018B8E4
:1004A0008FE794E8AEE181509040A040E1F700C0B2
:1004B00000000895389A0E94440208950E94810124
:1004C0000E94FA010E949C010E94D90186E091E0FD
:1004D0000E94B00180E090E061E070E00E94E001E5
:1004E00081E191E00E94B001FFCF5058BB27AA27BD
:1004F0000ED0B4C0A5D030F0AAD020F031F49F3F88
:1005000011F41EF49AC00EF4E095E7FB90C0E92FB9
:10051000B6D080F3BA17620773078407950718F0FF
:1005200071F49EF5CEC00EF4E0950B2EBA2FA02DDF
:100530000B01B90190010C01CA01A0011124FF2790
:10054000591B99F0593F50F4503E68F11A16F0408B
:10055000A22F232F342F4427585FF3CF469537958A
:100560002795A795F0405395C9F77EF41F16BA0B4F
:10057000620B730B840BBAF09150A1F0FF0FBB1FFD
:10058000661F771F881FC2F70EC0BA0F621F731F46
:10059000841F48F4879577956795B795F7959E3FA3
:1005A00008F0B3CF9395880F08F09927EE0F979531
:1005B00087950895E89409C097FB3EF4909580953F
:1005C000709561957F4F8F4F9F4F9923A9F0F92F19
:1005D00096E9BB279395F695879577956795B79597
:1005E000F111F8CFFAF4BB0F11F460FF1BC06F5F7D
:1005F0007F4F8F4F9F4F16C0882311F096E911C08F
:10060000772321F09EE8872F762F05C0662371F0AF
:1006100096E8862F70E060E02AF09A95660F771FC3
:10062000881FDAF7880F9695879597F9089597F9B7
:100630009F6780E870E060E008959FEF80EC089588
:1006400000240A94161617061806090608950024B1
:100650000A9412161306140605060895092E03942B
:10066000000C11F4882352F0BB0F40F4BF2B11F49F
:1006700060FF04C06F5F7F4F8F4F9F4F089557FDFE
:100680009058440F551F59F05F3F71F04795880F00
:1006900097FB991F61F09F3F79F087950895121697
:1006A00013061406551FF2CF4695F1DF08C0161643
:1006B00017061806991FF1CF8695710561050894F4
:1006C0000895E894BB2766277727CB0197F908950B
:1006D0000BD0C4CFB5DF28F0BADF18F0952309F0AE
:1006E000A6CFABCF1124EECFCADFA0F3959FD1F3F5
:1006F000950F50E0551F629FF001729FBB27F00DD0
:10070000B11D639FAA27F00DB11DAA1F649F662724
:10071000B00DA11D661F829F2227B00DA11D621F73
:10072000739FB00DA11D621F839FA00D611D221F2D
:10073000749F3327A00D611D231F849F600D211D11
:10074000822F762F6A2F11249F5750408AF0E1F0B4
:1007500088234AF0EE0FFF1FBB1F661F771F881FFD
:1007600091505040A9F79E3F510570F060CFAACF3D
:100770005F3FECF3983EDCF3869577956795B795E8
:10078000F795E7959F5FC1F7FE2B880F911D969512
:10079000879597F908952F923F924F925F926F92AB
:1007A0007F928F929F92AF92BF92CF92DF92EF9201
:1007B000FF920F931F93CF93DF93CDB7DEB765976B
:1007C0000FB6F894DEBF0FBECDBF4C017F876E879A
:1007D000FC0117821682838181FD04C076C34C859B
:1007E0005D8504C01E010894211C311CF401938115
:1007F000EE85FF8593FD859193FF8191FF87EE87BD
:10080000882309F45EC3853241F493FD859193FFFB
:100810008191FF87EE87853259F490E0B4014C8BCB
:100820005D8B0E948F084C895D895D874C87D7CF8F
:10083000FF24DD2410E01032B0F48B3269F08C32EA
:1008400028F4803251F0833271F40BC08D3239F0CC
:10085000803349F411602CC01260146029C0186004
:1008600027C0106125C017FD2EC0282F20532A3025
:1008700098F416FF08C08F2D880FF82EFF0CFF0C80
:10088000F80EF20E15C08D2D880FD82EDD0CDD0C64
:10089000D80ED20E10620CC08E3221F416FD11C398
:1008A000106406C08C3611F4106802C0883659F402
:1008B000EE85FF8593FD859193FF8191FF87EE87FC
:1008C000882309F0B8CF982F9554933018F410610D
:1008D000805E06C0982F9556933008F0A2C11F7E07
:1008E00016FD02C0E6E0FE2E1F73853611F410647B
:1008F00006C0863611F4106802C0F110FA9417FF92
:1009000007C0FBE3FF1548F0EF2CE39427E00DC090
:1009100027E02F1530F02F2D07C027E07CE3E72ECE
:1009200004C027E067E0F62EEE24CA0104969D87F6
:100930008C87FA016081718182819381A1010E2DE2
:100940000E9480075C01C9802C2D30E0398B288BF8
:10095000C0FE03C0388933FF06C011FD06C012FF78
:1009600006C000E205C00DE203C00BE201C000E0DA
:10097000888999898C709070009709F43CC0002395
:1009800011F084E001C083E08D1558F4D81A13FDEE
:1009900009C080E290E0B4010E948F08DA94C9F7A0
:1009A00001C0DD24002329F0802F90E0B4010E94D3
:1009B0008F08888983FD05C030E9E32E30E0F32EEF
:1009C00011C02CE8E22E20E0F22E0CC0011511051A
:1009D00009F0805290E0B4010E948F080894E11C55
:1009E000F11C04C0012F10E000711070F701849118
:1009F000882361F763C217FF0EC0EA0CF889F4FF81
:100A000004C08A81813309F4EA941E144CF528E06D
:100A10002E1548F12CC016FD2AC08F2D90E08A15A6
:100A20009B0544F03CEFA3163FEFB3061CF01068A3
:100A300001C0FA94FF2049F0E2E0F0E0EC0FFD1F66
:100A4000EF0DF11D80818033A1F317FF10C0EF2C53
:100A5000E3948F2D90E0A816B90644F4FA1807C065
:100A6000EE24E39404C098E0E92E01C0FF2417FFB0
:100A700007C01A141B043CF495012F5F3F4F05C0BB
:100A800025E030E002C021E030E0002311F02F5FCC
:100A90003F4FFF2029F08F2D90E00196280F391F3E
:100AA0008D2D90E02817390714F4D21A01C0DD24E7
:100AB000612E7724C30189709070009749F406C0B5
:100AC00080E290E0B4010E948F08DA94DD20C1F743
:100AD000002329F0802F90E0B4010E948F0863FC6E
:100AE00009C006C080E390E0B4010E948F08DA9448
:100AF000DD20C1F717FF48C08501B7FE02C000E046
:100B000010E06624772495012E1931093B8B2A8B3E
:100B10002501401A510A420C531C6F2D70E0EE243F
:100B2000FF24E61AF70A3FEF0F3F130729F48EE27E
:100B300090E0B4010E948F08A016B10654F02A89F3
:100B40003B89201731072CF4F201E60DF71D818156
:100B500001C080E3015010400894611C711C0E1507
:100B60001F052CF090E0B4010E948F08DCCF0A151D
:100B70001B0541F49A81963320F4953319F4388992
:100B800034FF81E390E049C08A81813311F09FEE08
:100B9000C92290E0B4010E948F08FF2089F08EE204
:100BA00090E0B4010E948F0812E0F101E10FF11D05
:100BB0001F5F808190E0B4010E948F08FA94A9F72A
:100BC00064FE03C085E490E002C085E690E0B401D5
:100BD0000E948F08B7FC05C0A114B10441F4C4FE03
:100BE00006C0B094A194B108B3948DE201C08BE229
:100BF00090E0B4010E948F0880E305C08F5FE6EFAC
:100C0000FFEFAE0EBF1EFAE0AF16B104BCF790E0E6
:100C1000B4010E948F08C501C096B4010E948F08DC
:100C20004DC1833631F0833789F0833509F059C0DF
:100C300022C09A012E5F3F4F3D872C87FA018081A9
:100C4000898381E0E82EF12C510113C09A012E5FB7
:100C50003F4F3D872C87FA01A080B18016FF03C06B
:100C60006F2D70E002C06FEF7FEFC5010E94630837
:100C70007C011F7714C09A012E5F3F4F3D872C8760
:100C8000FA01A080B18016FF03C06F2D70E002C092
:100C90006FEF7FEFC5010E9458087C01106813FDBB
:100CA0001CC006C080E290E0B4010E948F08DA9474
:100CB0008D2D90E0E816F906A8F30FC0F50117FD99
:100CC000859117FF81915F0190E0B4010E948F0828
:100CD000D110DA940894E108F108E114F10471F7F5
:100CE000EDC0843611F0893671F59A0117FF0AC0FC
:100CF0002C5F3F4F3D872C87FA0180819181A28133
:100D0000B3810BC02E5F3F4F3D872C87FA01808156
:100D10009181AA2797FDA095BA2F012F0F76B7FFD3
:100D200008C0B095A095909581959F4FAF4FBF4F4C
:100D30000068BC01CD01A1012AE030E00E94EA0870
:100D4000E82EE21841C0853721F41F7E2AE030E00A
:100D500020C0197F8F36A9F0803720F4883509F03C
:100D6000B0C00BC0803721F0883709F0AAC001C09D
:100D7000106114FF09C0146007C014FF08C016609A
:100D800006C028E030E005C020E130E002C020E1EC
:100D900032E0CA0117FF09C004969D878C87FA01CB
:100DA000608171818281938108C002969D878C87C2
:100DB000FA016081718180E090E0A1010E94EA085F
:100DC000E82EE218012F0F7706FF09C00E7FEF14FF
:100DD00030F404FF06C002FD04C00F7E02C01E2DC9
:100DE00001C01F2D802F90E004FF0CC0FE01EE0D0E
:100DF000F11D2081203311F4097E09C002FF06C0D5
:100E00001E5F05C086789070009709F01F5FA02EC6
:100E1000BB2403FD12C000FF0DC0FE2C1D1550F4B5
:100E2000FD0CF11A1D2D06C080E290E0B4010E9475
:100E30008F081F5F1D15C0F304C01D1510F4D11AD3
:100E400001C0DD24A4FE0FC080E390E0B4010E9445
:100E50008F08A2FE1FC0A1FE03C088E590E010C06D
:100E600088E790E00DC0C50186789070009791F0FA
:100E7000A1FC02C080E201C08BE207FD8DE290E0A0
:100E8000B4010E948F0806C080E390E0B4010E9484
:100E90008F08FA94EF14C0F3EA94F101EE0DF11DFE
:100EA000808190E0B4010E948F08EE20A9F706C06F
:100EB00080E290E0B4010E948F08DA94DD20C1F74F
:100EC0008ECCF4018681978102C08FEF9FEF6596EB
:100ED0000FB6F894DEBF0FBECDBFDF91CF911F914B
:100EE0000F91FF90EF90DF90CF90BF90AF909F90C9
:100EF0008F907F906F905F904F903F902F900895CC
:100F0000283008F027E03327DA01990F311D87FDDB
:100F1000916000966105710539F432602E5F3D9352
:100F200030E32A95E1F708959F3F30F0803871054E
:100F3000610509F03C5F3C5F3D93913008F08068AB
:100F4000911DDF93CF931F930F93FF92EF92192F71
:100F5000987F9695E92F96959695E90FFF27E25190
:100F6000FF4F99273327EE24FF24A701E7010590BF
:100F70000894079428F4360FE71EF81E491F511DE8
:100F8000660F771F881F991F0694A1F70590079495
:100F900028F4E70EF81E491F561FC11D770F881F42
:100FA000991F661F0694A1F70590079428F4F80E80
:100FB000491F561FC71FD11D880F991F661F771F16
:100FC0000694A1F70590079420F4490F561FC71FF8
:100FD000D81F990F661F771F881F0694A9F7849161
:100FE0001095177041F0D695C79557954795F7948A
:100FF000E7941A95C1F7E4E9F0E06894159015912B
:1010000035916591959105907FE27395E118F10A0C
:10101000430B560BC90BD009C0F7E10CF11E431F5F
:10102000561FC91FD01D7EF4703311F48A95E6CF88
:10103000E894015030F0080F0AF40027021708F472
:10104000202F2395022F7A3328F079E37D932A9578
:10105000E9F710C07D932A9589F6069497956795D0
:10106000379517951794E118F10A430B560BC90BE6
:10107000D00998F023957E9173957A3308F070E348
:101080007C932013B8F77E9170617D9330F0839547
:1010900071E37D9370E32A95E1F71124EF90FF90BF
:1010A0000F911F91CF91DF91992787FD909508951A
:1010B000FC010590615070400110D8F78095909523
:1010C0008E0F9F1F0895FC01615070400190011028
:1010D000D8F7809590958E0F9F1F0895FB019F0173
:1010E000E8944230C4F04532B4F44A3029F497FB16
:1010F0001EF4909581959F4F642F77270E94580981
:10110000805D8A330CF0895D8193CB010097A1F754
:1011100016F45DE251931082C9010C9448090F93B3
:101120001F93CF93DF938C01EB018B8181FF1BC059
:1011300082FF0DC02E813F818C819D812817390748
:1011400064F4E881F9810193F983E88306C0E885B6
:10115000F985802F0995009731F48E819F81019642
:101160009F838E8302C00FEF1FEFC801DF91CF91E5
:101170001F910F9108950F931F93CF93DF93CDB7D6
:10118000DEB72E970FB6F894DEBF0FBECDBF0D8928
:101190001E8986E08C831A8309838FEF9FE79E83E5
:1011A0008D83AE01475E5F4FCE0101966F89788DCA
:1011B0000E94CB03EF81F885E00FF11F10822E967D
:1011C0000FB6F894DEBF0FBECDBFDF91CF911F9158
:1011D0000F910895FA01AA27283051F1203181F1A9
:1011E000E8946F936E7F6E5F7F4F8F4F9F4FAF4F2F
:1011F000B1E03ED0B4E03CD0670F781F891F9A1F42
:10120000A11D680F791F8A1F911DA11D6A0F711DF5
:10121000811D911DA11D20D009F468943F912AE001
:10122000269F11243019305D3193DEF6CF010895E9
:10123000462F4770405D4193B3E00FD0C9F7F6CF1A
:10124000462F4F70405D4A3318F0495D31FD4052E2
:10125000419302D0A9F7EACFB4E0A6959795879578
:1012600077956795BA95C9F7009761057105089557
:101270009B01AC010A2E0694579547953795279503
:10128000BA95C9F7620F731F841F951FA01D08959B
:10129000DC01FC01672F71917723E1F7329704C0DD
:1012A0007C916D9370836291AE17BF07C8F3089568
:1012B000AA1BBB1B51E107C0AA1FBB1FA617B7077C
:1012C00010F0A61BB70B881F991F5A95A9F7809598
:0C12D0009095BC01CD010895F894FFCF6B
:1012DC000A0D0025660049203C33204368616421D7
:1012EC00004A757374204B696464696E672E000044
:00000001FF
