:100000000C9446000C9465000C9465000C946500FB
:100010000C9465000C9465000C9465000C946500CC
:100020000C9465000C9465000C9465000C946500BC
:100030000C9465000C9465000C9465000C946500AC
:100040000C9465000C9465000C9465000C9465009C
:100050000C9465000C9465000C9465000C9465008C
:100060000C9465000C9465000C9465000C9465007C
:100070000C9465000C9465000C9465000C9465006C
:100080000C9465000C9465000C94650011241FBE4F
:10009000CFEFD0E4DEBFCDBF11E0A0E0B1E0ECE0F7
:1000A000F1E000E00BBF02C007900D92A030B10755
:1000B000D9F711E0A0E0B1E001C01D92A030B10776
:1000C000E1F70E9467000C9484000C9400000E94E9
:1000D0006C000E946E00FDCF389A089581E088B9C7
:1000E0008FED93E9A4E081509040A040E1F700C07B
:1000F000000018B88FED93E9A4E081509040A04033
:0C010000E1F700C000000895F894FFCF64
:00000001FF
