:100000000C9446000C9465000C9465000C946500FB
:100010000C9465000C9465000C9465000C946500CC
:100020000C9465000C9465000C9465000C946500BC
:100030000C9465000C9465000C9465000C946500AC
:100040000C9465000C9465000C9465000C9465009C
:100050000C9465000C9465000C9465000C9465008C
:100060000C9465000C9465000C9465000C9465007C
:100070000C9465000C9465000C9465000C9465006C
:100080000C9465000C9465000C94650011241FBE4F
:10009000CFEFD0E4DEBFCDBF11E0A0E0B1E0E2E2FF
:1000A000F3E000E00BBF02C007900D92AA33B10746
:1000B000D9F711E0AAE3B1E001C01D92AA33B1075C
:1000C000E1F70E94C4000C948F010C94000080EBB7
:1000D00084B988E58CBD08958EBD0DB407FEFDCFB3
:1000E0008EB508950F931F93CF93DF93CDB7DEB7EF
:1000F0002A970FB6F894DEBF0FBECDBF2C9A2C986E
:100100008DB50E94E80080E091E00E940A018CE039
:100110000E946C008AE091E00E940A0180E00E9447
:100120006C00082F88E191E00E940A0180E00E94A3
:100130006C00182F2C9A802F90E0BE016F5F7F4FCC
:100140004AE050E00E944A01CE0101960E940A0155
:10015000812F90E0BE016F5F7F4F4AE050E00E9428
:100160004A01CE0101960E940A0183E291E00E94B9
:100170000A012A960FB6F894DEBF0FBECDBFDF91FD
:10018000CF911F910F9108950E9467000E94DB009C
:100190000E944601C6E2D1E0CE010E940A010E94FF
:1001A00072008FE794E8AEE181509040A040E1F703
:1001B00000C00000F1CF83E38093CC001092CD000B
:1001C000539A88E18093C90086E08093CA0008951D
:1001D000E8ECF0E0908195FFFDCF8093CE0008958C
:1001E000E8ECF0E080818823ECF78091CE00089560
:1001F0000E94F000833AE1F78FE90E94E80083E86B
:100200000E94E80085EA0E94E8000E94F0008A3A15
:10021000E1F70895EF92FF920F931F93CF93DF932F
:10022000F82EE92E082F192FC0E0D0E006C0F80103
:1002300081918F010E94E8002196EF2DFE2DDF01B4
:100240000D900020E9F71197AE1BBF0BCA17DB0713
:1002500070F3DF91CF911F910F91FF90EF90089570
:1002600081E088B98FED93E9A4E081509040A040EF
:10027000E1F700C0000018B88FED93E9A4E08150C9
:100280009040A040E1F700C000000895389A0E9415
:1002900030010895FB019F01E8944230C4F04532DB
:1002A000B4F44A3029F497FB1EF4909581959F4F42
:1002B000642F77270E947B01805D8A330CF0895D73
:1002C0008193CB010097A1F716F45DE25193108260
:1002D000C9010C946B01DC01FC01672F719177233C
:1002E000E1F7329704C07C916D9370836291AE17F1
:1002F000BF07C8F30895AA1BBB1B51E107C0AA1F83
:10030000BB1FA617B70710F0A61BB70B881F991FB6
:100310005A95A9F780959095BC01CD010895F89460
:02032000FFCF0D
:10032200696E206C6F6F700A0D007472616E736D6E
:1003320069747465640A0D00726563696576656443
:100342000A0D000A0D004F4E0A0D000000000300C6
:0A035200000000E800F000000000C9
:00000001FF
