:100000000C9446000C9465000C9465000C946500FB
:100010000C9465000C9465000C9465000C946500CC
:100020000C9465000C9465000C9465000C946500BC
:100030000C9465000C9465000C9465000C946500AC
:100040000C9465000C9465000C9465000C9465009C
:100050000C9465000C9465000C9465000C9465008C
:100060000C9465000C9465000C9465000C9465007C
:100070000C9465000C9465000C9465000C9465006C
:100080000C9465000C9465000C94650011241FBE4F
:10009000CFEFD0E4DEBFCDBF11E0A0E0B1E0E0EBF8
:1000A000F1E000E00BBF02C007900D92AE30B10747
:1000B000D9F711E0AEE0B1E001C01D92AE30B1075A
:1000C000E1F70E9467000C94D6000C9400000E9497
:1000D00073000E94A600C0E0D1E085E590E0BE017B
:1000E0000E94AA00FACF83E38093CC001092CD0047
:1000F000539A88E18093C90086E08093CA000895EE
:10010000E8ECF0E0908195FFFDCF8093CE0008955C
:10011000E8ECF0E080818823ECF78091CE00089530
:1001200081E088B98FED93E9A4E081509040A04030
:10013000E1F700C0000018B88FED93E9A4E081500A
:100140009040A040E1F700C000000895389A0E9456
:10015000900008950F931F93CF93DF938C01EB01D1
:100160008B8181FF1BC082FF0DC02E813F818C815E
:100170009D812817390764F4E881F9810193F98397
:10018000E88306C0E885F985802F0995009731F44A
:100190008E819F8101969F838E8302C00FEF1FEF98
:1001A000C801DF91CF911F910F910895F894FFCF6F
:0E01B000000000030000000080008800000036
:00000001FF
