:100000000C9446000C9465000C9465000C946500FB
:100010000C9465000C9465000C9465000C946500CC
:100020000C9465000C9465000C9465000C946500BC
:100030000C9465000C9465000C9465000C946500AC
:100040000C9465000C9465000C9465000C9465009C
:100050000C9465000C9465000C9465000C9465008C
:100060000C9465000C9465000C9465000C9465007C
:100070000C9465000C9465000C9465000C9465006C
:100080000C9465000C9465000C94650011241FBE4F
:10009000CFEFD0E4DEBFCDBF11E0A0E0B1E0E6E5F8
:1000A000F2E000E00BBF02C007900D92A233B1074F
:1000B000D9F711E0A2E3B1E001C01D92A233B1076C
:1000C000E1F70E94A7000C9429010C94000080EB3A
:1000D00084B980E58CBD08958EBD0DB407FEFDCFBB
:1000E00008950DB407FEFDCF8EB50895CF9385B169
:1000F00085B985B185B98DB50E94C70080E091E0D2
:100100000E94E9008CE00E946C008AE091E00E946D
:10011000E9000E947100C82F88E191E00E94E90087
:1001200085B185B98C2F0E94C70080E00E94C7006E
:10013000CF91089585B78E7F85BF85B7826085BFD3
:1001400085B78B7F85BF85B7886085BF08950E947E
:100150009A000E94BA000E94250178940E947600BD
:100160008FE39DE0A3E081509040A040E1F700C004
:100170000000F4CF83E38093CC001092CD00539A1B
:1001800088E18093C90086E08093CA000895E8EC76
:10019000F0E0908195FFFDCF8093CE000895E8ECCC
:1001A000F0E080818823ECF78091CE0008950E94D2
:1001B000CF00833AE1F78FE90E94C70083E80E94ED
:1001C000C70085EA0E94C7000E94CF008A3AE1F783
:1001D0000895EF92FF920F931F93CF93DF93F82E22
:1001E000E92E082F192FC0E0D0E006C0F801819158
:1001F0008F010E94C7002196EF2DFE2DDF010D908B
:100200000020E9F71197AE1BBF0BCA17DB0770F38D
:10021000DF91CF911F910F91FF90EF90089581E0B2
:1002200088B98FED93E9A4E081509040A040E1F7B8
:1002300000C0000018B88FED93E9A4E08150904011
:10024000A040E1F700C000000895389A0E940F0115
:060250000895F894FFCFB1
:10025600696E206C6F6F700A0D007472616E736D3B
:1002660069747465640A0D00726563696576656410
:100276000A0D000000000300000000C700CF0000C8
:02028600000076
:00000001FF
