S0100000486F6D65536167652E737265630B
S11300000C9446000C9466000C9466000C946600F4
S11300100C9466000C9466000C9466000C946600C4
S11300200C9466000C9466000C9466000C946600B4
S11300300C9466000C9466000C9466000C946600A4
S11300400C9466000C9466000C9466000C94660094
S11300500C94DF010C9466000C9466000C9466000A
S11300600C9466000C9466000C9466000C94660074
S11300700C9466000C9466000C9466000C94660064
S11300800C9466000C9466000C94660011241FBE48
S1130090CFEFD0E4DEBFCDBF11E0A0E0B1E0EEE7EA
S11300A0F3E100E00BBF02C007900D92AC32B10740
S11300B0D9F71BBE11E0ACE2B1E001C01D92AF3232
S11300C0B107E1F70E9483010C94BD090C94000070
S11300D080EB84B980E58CBD08958EBD0DB407FE18
S11300E0FDCF8EB50895CF93DF93EC012C9A85B1A3
S11300F015B8CE01959587958C600E946D008C2F64
S11301008795882787950E946D00C82FD0E080E0EE
S11301100E946D002C9ACF73D070DC2FCC279E01E7
S1130120280F311DC901DF91CF910895AF92BF927D
S1130130CF92DF92EF92FF920F931F93CF93DF93AF
S1130140CDB7DEB7C05EDE420FB6F894DEBF0FBE99
S1130150CDBF7E010894E11CF11C0F2EF1EEAF2EF1
S1130160FEE2BF2EF02DAC0EBD1E870181E090E0B3
S11301700E94730086519840D8018D939D938D0100
S1130180AA15BB0599F700E010E0DD24CC24F701A3
S11301908081918199232CF4909581959F4F91832F
S11301A0808382E090E0E80EF91E608171818827E7
S11301B077FD8095982F0E9488059B01AC010E94D1
S11301C01406F62FE72F382F292F402F512F6D2D8E
S11301D07C2DCB01BA01422F0F2F1E2F232F342F3A
S11301E0A90198010E94BA04062F172FD82EC92EF0
S11301F0AE14BF0461F6862F912FAD2DBC2DBC012A
S1130200CD0120E030E84BEB55E40E941E050E942E
S11302107B062AE939E949EF5FE30E94B9042CE53A
S11302203FEC47E053E40E941E05462F572F682FEA
S1130230792FCB01BA01C052D14D0FB6F894DEBF6D
S11302400FBECDBFDF91CF911F910F91FF90EF9023
S1130250DF90CF90BF90AF900895EF92FF920F93ED
S11302601F93CF93DF93C8EED3E010E000E0FF24A8
S1130270EE2480E090E00E9473009C01B90188277D
S113028077FD8095982F0E9488059B01AC01812FF2
S1130290902FAF2DBE2DBC01CD010E94BA04162FA4
S11302A0072FF82EE92E219721F7862F902FAF2DB7
S11302B0BE2DBC01CD0120E030E04AE754E40E94A9
S11302C01E0520E03EEE4DE057E40E94BA042DECFA
S11302D03CE640EA53E40E941E05462F572F682F40
S11302E0792FCB01BA01DF91CF911F910F91FF902C
S11302F0EF9008950E941406462F572F682F792FE8
S1130300CB01BA0108950E9449020E9468000E942C
S1130310A6038FE996E8A1E081509040A040E1F760
S113032000C000000E9466027894C0E0D1E00E9400
S11303302D014B015C010E9496002B013C01C5017B
S1130340B401A30192010E947A017B018C010E94F5
S1130350C402C501B401A30192010E94CB028FE340
S11303609DE0A3E081509040A040E1F700C0000070
S113037080912E018823F1F00E94C40280E090E075
S113038060E070E00E94B102CE010E947A0281E036
S113039090E0B501A401930182010E94E9038FE377
S11303A092E4AFE081509040A040E1F700C000002B
S11303B010922E0180912D0180912C01B8CF1F92B3
S11303C00F920FB60F9211248F938091C600803B39
S11303D0B9F1813B70F4803A09F1813A20F4823416
S11303E009F051C015C0813AF9F0823A09F04BC0C6
S11303F021C0803CB9F1813C30F4813B39F1823B2E
S113040009F041C029C0813C99F1823CE1F536C034
S113041080912E01816080932E0135C080912E0140
S1130420816080932E012FC080912E018260809381
S11304302E0129C080912E01846080932E0123C057
S113044080912D01816080932D011DC080912D012B
S1130450826080932D0117C080912D018460809368
S11304602D0111C080912C01816080932C010BC05F
S113047080912C01826080932C0105C080912C0115
S1130480846080932C018F910F900FBE0F901F906A
S1130490189583E38093CC001092CD00539A88E1A1
S11304A08093C90086E08093CA000895E8ECF0E0E8
S11304B0908195FFFDCF8093CE000895E8ECF0E0A5
S11304C080818823ECF78091CE0008958FE90E9403
S11304D0560282E80E9456028FE90E94560283E87F
S11304E00E94560285EA0E9456020E945E028A3ADF
S11304F0E1F70895EF92FF920F931F93CF93DF9349
S1130500F82EE92E8EEF0E9456020F2D1E2DC0E00C
S1130510D0E006C0F80181918F010E945602219615
S1130520EF2DFE2DDF010D900020E9F71197AE1B92
S1130530BF0BCA17DB0770F3DF91CF911F910F91A7
S1130540FF90EF9008958FE90E94560281E80E947F
S1130550560208958FE90E94560280E80E945602CE
S11305600895CF93DF93D82FC62F8FE90E945602A8
S11305708FEF0E9456028D2F0E9456028C2F0E94EC
S11305805602DF91CF9108958FE90E94560285E6C5
S11305900E94560208954F925F926F927F928F92BB
S11305A09F92AF92BF92CF92DF92EF92FF920F93FE
S11305B01F93CF93DF93CDB7DEB72B970FB6F89485
S11305C0DEBF0FBECDBF4B015C01288739874A8748
S11305D05B87270138010E94C40280E090E060E05C
S11305E070E00E94B1028DB79EB70A970FB6F894D7
S11305F09EBF0FBE8DBFEDB7FEB731968E010F5F64
S11306001F4FADB7BEB712961C930E9311970F2EC2
S1130610F6E0CF2EDD24F02DD382C2820F2EF0E13E
S1130620EF2EF1E0FF2EF02DF582E4828682978290
S1130630A086B1860E94D9068DB79EB70A960FB6DA
S1130640F8949EBF0FBE8DBF83E191E00E947A02B1
S1130650C8010E947A0288E090E060E070E00E94A5
S1130660B102ADB7BEB71A970FB6F894BEBF0FBEAE
S1130670ADBFEDB7FEB7319612961C930E9311974A
S113068087E090E093838283F582E482888599856C
S1130690AA85BB8586839783A087B1870E94D906E4
S11306A0ADB7BEB71A960FB6F894BEBF0FBEADBFB6
S11306B086E191E00E947A02C8010E947A0282E0F7
S11306C090E061E070E00E94B1028DB79EB70A9796
S11306D00FB6F8949EBF0FBE8DBFEDB7FEB731962F
S11306E0ADB7BEB712961C930E931197D382C282F4
S11306F0F582E48246825782608671860E94D9061A
S11307008DB79EB70A960FB6F8949EBF0FBE8DBFE5
S113071089E191E00E947A02C8010E947A022B9634
S11307200FB6F894DEBF0FBECDBFDF91CF911F91FE
S11307300F91FF90EF90DF90CF90BF90AF909F907C
S11307408F907F906F905F904F90089583E3809394
S1130750C4001092C500519A88E98093C10086E0D4
S11307608093C2000895E0ECF0E0908195FFFDCF06
S11307708093C6000895E0ECF0E080818823ECF7D4
S11307808091C6000895EF92FF920F931F93CF9329
S1130790DF93F82EE92E082F192FC0E0D0E006C011
S11307A0F80181918F010E94B3032196EF2DFE2D54
S11307B0DF010D900020E9F71197AE1BBF0BCA179C
S11307C0DB0770F3DF91CF911F910F91FF90EF90B2
S11307D008958F929F92AF92BF92EF92FF920F93E0
S11307E01F93CF93DF93CDB7DEB7A1970FB6F894DD
S11307F0DEBF0FBECDBF4801590119821A821B8288
S11308001C82FE0135969FE0DF011D929A95E9F75F
S1130810805D89831A828DB79EB70A970FB6F894C4
S11308209EBF0FBE8DBFEDB7FEB731960F2EF4E11C
S1130830EF2EFF24F02DEC0EFD1EADB7BEB71296C1
S1130840FC92EE92119786E090E09383828380E29B
S113085091E09583848346835783608771870E94E0
S1130860D9068DB79EB70A960FB6F8949EBF0FBEF1
S11308708DBF8E010F5F1F4FC801B7010E94CE06C6
S1130880ADB7BEB71A970FB6F894BEBF0FBEADBFD3
S1130890EDB7FEB731960F2EFAE1EF2EFF24F02DBF
S11308A0EC0EFD1E1296FC92EE92119788E090E0F9
S11308B09383828386E291E0958384838682978200
S11308C0A086B1860E94D9068DB79EB70A960FB648
S11308D0F8949EBF0FBE8DBFC801B7010E94CE061B
S11308E0F80101900020E9F731978DE090E09183C1
S11308F08083C8010E94C30380E090E061E070E05F
S11309000E94B102C8010E947A02A1960FB6F8941F
S1130910DEBF0FBECDBFDF91CF911F910F91FF902E
S1130920EF90BF90AF909F908F9008955F9A8FE75C
S113093098E3A1E081509040A040E1F700C000009E
S11309405F980895579A0E94960408953F98479A8D
S1130950E9E6F0E0808181608083E8E6F0E0808170
S113096084608083EDE6F0E0808180688083789401
S113097008955058BB27AA270ED01CC10DD130F0C2
S113098012D120F031F49F3F11F41EF402C10EF491
S1130990E095E7FBF8C0E92F1ED180F3BA17620790
S11309A073078407950718F071F49EF536C10EF4A9
S11309B0E0950B2EBA2FA02D0B01B90190010C016B
S11309C0CA01A0011124FF27591B99F0593F50F483
S11309D0503E68F11A16F040A22F232F342F4427DB
S11309E0585FF3CF469537952795A795F0405395D3
S11309F0C9F77EF41F16BA0B620B730B840BBAF0A3
S1130A009150A1F0FF0FBB1F661F771F881FC2F70D
S1130A100EC0BA0F621F731F841F48F48795779521
S1130A206795B795F7959E3F08F0B3CF9395880FD8
S1130A3008F09927EE0F9795879508950CD0BAC0C2
S1130A40B2D040F0A9D030F021F45F3F19F09BC040
S1130A505111E4C09EC0BFD098F39923C9F3552324
S1130A60B1F3951B550BBB27AA276217730784079D
S1130A7038F09F5F5F4F220F331F441FAA1FA9F353
S1130A8033D00E2E3AF0E0E830D091505040E69545
S1130A90001CCAF729D0FE2F27D0660F771F881FA6
S1130AA0BB1F261737074807AB07B0E809F0BB0B95
S1130AB0802DBF01FF2793585F4F2AF09E3F5105B9
S1130AC068F061C0ABC05F3FECF3983EDCF3869501
S1130AD077956795B795F7959F5FC9F7880F911D2F
S1130AE09695879597F90895E1E0660F771F881F1B
S1130AF0BB1F621773078407BA0720F0621B730BCE
S1130B00840BBA0BEE1F88F7E0950895E89409C0AA
S1130B1097FB3EF490958095709561957F4F8F4F2C
S1130B209F4F9923A9F0F92F96E9BB279395F69542
S1130B30879577956795B795F111F8CFFAF4BB0FC0
S1130B4011F460FF1BC06F5F7F4F8F4F9F4F16C024
S1130B50882311F096E911C0772321F09EE8872FAE
S1130B60762F05C0662371F096E8862F70E060E06A
S1130B702AF09A95660F771F881FDAF7880F9695E3
S1130B80879597F9089597F99F6780E870E060E08A
S1130B9008959FEF80EC089500240A941616170612
S1130BA018060906089500240A941216130614065A
S1130BB005060895092E0394000C11F4882352F0BD
S1130BC0BB0F40F4BF2B11F460FF04C06F5F7F4F75
S1130BD08F4F9F4F089557FD9058440F551F59F05C
S1130BE05F3F71F04795880F97FB991F61F09F3F16
S1130BF079F087950895121613061406551FF2CF3F
S1130C004695F1DF08C0161617061806991FF1CF8E
S1130C1086957105610508940895E894BB276627B5
S1130C207727CB0197F908950BD0C4CFB5DF28F00F
S1130C30BADF18F0952309F0A6CFABCF1124EECF7D
S1130C40CADFA0F3959FD1F3950F50E0551F629F23
S1130C50F001729FBB27F00DB11D639FAA27F00D11
S1130C60B11DAA1F649F6627B00DA11D661F829F38
S1130C702227B00DA11D621F739FB00DA11D621F1D
S1130C80839FA00D611D221F749F3327A00D611D3A
S1130C90231F849F600D211D822F762F6A2F11241C
S1130CA09F5750408AF0E1F088234AF0EE0FFF1F6F
S1130CB0BB1F661F771F881F91505040A9F79E3FA6
S1130CC0510570F060CFAACF5F3FECF3983EDCF3A0
S1130CD0869577956795B795F795E7959F5FC1F7E3
S1130CE0FE2B880F911D9695879597F9089511F419
S1130CF00EF44FCF3EC077DFD0F39923D9F3CEF370
S1130D009F57550B87FF43D00024A0E640EA90018B
S1130D1080585695979528F4805C660F771F881F36
S1130D2020F026173707480730F4621B730B840B37
S1130D30202931294A2BA69517940794202531257B
S1130D404A2758F7660F771F881F20F026173707A2
S1130D50480730F4620B730B840B200D311D411DC9
S1130D60A09581F7B901842F9158880F969587959E
S1130D7008959F3F31F0915020F4879577956795BA
S1130D80B795880F911D9695879597F90895915079
S1130D905040660F771F881FD2F70895FB01DC01CE
S1130DA00D900020E9F7119701900D920020E1F7D2
S1130DB008950F931F93CF93DF93CDB7DEB72E978C
S1130DC00FB6F894DEBF0FBECDBF0D891E898F8983
S1130DD0988D26E02C831A83098397FF02C080E054
S1130DE090E801979E838D83AE01455E5F4FCE01EF
S1130DF00196698D7A8D0E9416074D815E8157FD9B
S1130E000AC02F813885421753070CF49A01020F48
S1130E10131FF80110822E960FB6F894DEBF0FBE92
S1130E20CDBFDF91CF911F910F9108952F923F92E3
S1130E304F925F926F927F928F929F92AF92BF92E6
S1130E40CF92DF92EF92FF920F931F93CF93DF9392
S1130E50CDB7DEB72D970FB6F894DEBF0FBECDBF6A
S1130E603C017D876C875A01FC01178216828381BD
S1130E7081FFC8C12E010894411C511CF3019381C8
S1130E80EC85FD8593FD859193FF8191FD87EC872A
S1130E90882309F4B3C1853241F493FD859193FF0E
S1130EA08191FD87EC87853229F490E0B3010E949B
S1130EB03309E4CFFF24EE2410E01032B0F48B3277
S1130EC069F08C3228F4803251F0833271F40BC013
S1130ED08D3239F0803349F411602CC012601460F3
S1130EE029C0186027C0106125C017FD2EC0282F07
S1130EF020532A3098F416FF08C08F2D880FF82E3F
S1130F00FF0CFF0CF80EF20E15C08E2D880FE82E84
S1130F10EE0CEE0CE80EE20E10620CC08E3221F4E0
S1130F2016FD6CC1106406C08C3611F4106802C042
S1130F30883659F4EC85FD8593FD859193FF819165
S1130F40FD87EC87882309F0B8CF982F9554933008
S1130F5018F09052933038F424E030E0A20EB31E1F
S1130F603FE339830FC0833631F0833781F0833513
S1130F7009F05AC022C0F5018081898322E030E063
S1130F80A20EB31E21E0C22ED12C420114C092E065
S1130F90292E312C2A0C3B1CF5018080918016FFF0
S1130FA003C06F2D70E002C06FEF7FEFC4010E9499
S1130FB028096C0151011F7715C082E0282E312CBD
S1130FC02A0C3B1CF5018080918016FF03C06F2D15
S1130FD070E002C06FEF7FEFC4010E941D096C0135
S1130FE01068510113FD1CC006C080E290E0B301FB
S1130FF00E943309EA948E2D90E0C816D906A8F30E
S11310000FC0F40117FD859117FF81914F0190E006
S1131010B3010E943309E110EA940894C108D1088D
S1131020C114D10471F7E7C0843611F0893651F543
S1131030F50117FF07C080819181A281B38124E06B
S113104030E008C080819181AA2797FDA095BA2F2E
S113105022E030E0A20EB31E012F0F76B7FF08C0C6
S1131060B095A095909581959F4FAF4FBF4F006865
S1131070BC01CD01A2012AE030E00E945F09D82E14
S1131080D4183FC0853721F41F7E2AE030E020C009
S1131090197F8F36A9F0803720F4883509F0AEC067
S11310A00BC0803721F0883709F0A8C001C0106157
S11310B014FF09C0146007C014FF08C0166006C0FE
S11310C028E030E005C020E130E002C020E132E059
S11310D0F50117FF07C0608171818281938144E02B
S11310E050E006C06081718180E090E042E050E011
S11310F0A40EB51EA2010E945F09D82ED418012F98
S11311000F7706FF09C00E7FDF1430F404FF06C01A
S113111002FD04C00F7E02C01D2D01C01F2D802FB3
S113112090E004FF0CC0FE01ED0DF11D2081203381
S113113011F4097E09C002FF06C01E5F05C086784F
S11311409070009709F01F5F802E992403FD12C050
S113115000FF0DC0FD2C1E1550F4FE0CF11A1E2DBF
S113116006C080E290E0B3010E9433091F5F1E15A0
S1131170C0F304C01E1510F4E11A01C0EE2484FE6D
S11311800FC080E390E0B3010E94330982FE1FC0C8
S113119081FE03C088E590E010C088E790E00DC0B0
S11311A0C40186789070009791F081FC02C080E2BF
S11311B001C08BE207FD8DE290E0B3010E94330988
S11311C006C080E390E0B3010E943309FA94DF146F
S11311D0C0F3DA94F201ED0DF11D808190E0B301CA
S11311E00E943309DD20A9F706C080E290E0B30134
S11311F00E943309EA94EE20C1F740CEF3018681C0
S1131200978102C08FEF9FEF2D960FB6F894DEBF43
S11312100FBECDBFDF91CF911F910F91FF90EF9043
S1131220DF90CF90BF90AF909F908F907F906F9002
S11312305F904F903F902F900895FC01059061506E
S113124070400110D8F7809590958E0F9F1F0895D8
S1131250FC016150704001900110D8F78095909581
S11312608E0F9F1F08950F931F93CF93DF938C01CD
S1131270EB018B8181FF1BC082FF0DC02E813F815A
S11312808C819D812817390764F4E881F9810193E1
S1131290F983E88306C0E885F985802F09950097CE
S11312A031F48E819F8101969F838E8302C00FEF5C
S11312B01FEFC801DF91CF911F910F910895FA019B
S11312C0AA27283051F1203181F1E8946F936E7F81
S11312D06E5F7F4F8F4F9F4FAF4FB1E03ED0B4E072
S11312E03CD0670F781F891F9A1FA11D680F791FB3
S11312F08A1F911DA11D6A0F711D811D911DA11DC4
S113130020D009F468943F912AE0269F11243019D3
S1131310305D3193DEF6CF010895462F4770405D6E
S11313204193B3E00FD0C9F7F6CF462F4F70405D1D
S11313304A3318F0495D31FD4052419302D0A9F778
S1131340EACFB4E0A6959795879577956795BA9572
S1131350C9F700976105710508959B01AC010A2E38
S113136006945795479537952795BA95C9F7620F0F
S1111370731F841F951FA01D0895F894FFCFCE
S113137E53656E64696E672076616C7565732E00B5
S113138E256600563A00493A00506F7765723A0066
S10F139E25332E31660025322E37660000
S9030000FC
