:100000000C9446000C9465000C9465000C946500FB
:100010000C9465000C9465000C9465000C946500CC
:100020000C9465000C9465000C9465000C946500BC
:100030000C9465000C9465000C9465000C946500AC
:100040000C9465000C9465000C9465000C9465009C
:100050000C9465000C9465000C9465000C9465008C
:100060000C9465000C9465000C9465000C9465007C
:100070000C9465000C9465000C9465000C9465006C
:100080000C9465000C9465000C94650011241FBE4F
:10009000CFEFD0E4DEBFCDBF11E0A0E0B1E0E6E9F4
:1000A000F3E100E00BBF02C007900D92A031B10751
:1000B000D9F711E0A0E1B1E001C01D92A031B10774
:1000C000E1F70E94C5000C94C9090C94000080EB74
:1000D00084B980E58CBD08958EBD0DB407FEFDCFBB
:1000E0008EB50895CF93DF93EC012C9A85B115B8A6
:1000F000CE01959587958C600E946C008C2F87951A
:10010000882787950E946C00C82FD0E080E00E946D
:100110006C002C9ACF73D070DC2FCC279E01280F57
:10012000311DC901DF91CF910895BC0180E090E0BD
:100130000E94F40528E53AE84AE45BE30E9482065F
:1001400021EB31EE49EE5DE30E94FB04462F572F71
:10015000682F792FCB01BA010895BC0180E090E0AF
:100160000E94F40521E03CE040E45BE30E9482064B
:1001700023E333E343EE52E40E94FC04462F572F5F
:10018000682F792FCB01BA010895CF93DF93CDB7B4
:10019000DEB76A970FB6F894DEBF0FBECDBF0E94E0
:1001A00030030E9484040E9467000E94E1040E94C0
:1001B000F0040E944D030E948A0381E090E00E94B7
:1001C00072009A83898387EA91E60197F1F700C06C
:1001D000000081E090E00E9472009C838B83A7EA7C
:1001E000B1E61197F1F700C0000081E090E00E94B5
:1001F00072009E838D83E7EAF1E63197F1F700C044
:10020000000081E090E00E94720098878F8387EA67
:1002100091E60197F1F700C0000081E090E00E94B4
:1002200072009A878987A7EAB1E61197F1F700C0B3
:10023000000081E090E00E9472009C878B87E7EAD3
:10024000F1E63197F1F700C0000081E090E00E94F4
:1002500072009E878D8787EA91E60197F1F700C0CB
:10026000000081E090E00E947200988B8F87A7EADF
:10027000B1E61197F1F700C0000081E090E00E9424
:1002800072009A8B898BE7EAF1E63197F1F700C0AB
:10029000000081E090E00E9472009C8B8B8B81E0DB
:1002A00090E00E9472006C0187EA91E60197F1F7F5
:1002B00000C0000081E090E00E9472008C01A7EA7B
:1002C000B1E61197F1F700C0000081E090E00E94D4
:1002D00072005C01E7EAF1E63197F1F700C0000037
:1002E00081E090E00E9472004C0187EA91E601975C
:1002F000F1F700C0000081E090E00E9472003C0134
:10030000A7EAB1E61197F1F700C0000081E090E0A4
:100310000E9472002C01E7EAF1E63197F1F700C084
:10032000000081E090E00E9472001C0187EA91E6E3
:100330000197F1F700C0000081E090E00E94720098
:100340009E8B8D8BA7EAB1E61197F1F700C00000F4
:1003500081E090E00E947200988F8F8BE7EAF1E6CF
:100360003197F1F700C0000081E090E00E94720038
:100370009A8F898FB601882777FD8095982F0E94E4
:10038000F6056B017C01B801882777FD8095982FD1
:100390000E94F6059B01AC01C701B6010E94FC0456
:1003A0006B017C01B501882777FD8095982F0E940D
:1003B000F6059B01AC01C701B6010E94FC046B016C
:1003C0007C01B401882777FD8095982F0E94F6055F
:1003D0009B01AC01C701B6010E94FC046B017C01CA
:1003E000B301882777FD8095982F0E94F6059B0121
:1003F000AC01C701B6010E94FC046B017C01B20193
:10040000882777FD8095982F0E94F6059B01AC0107
:10041000C701B6010E94FC046B017C01B101882771
:1004200077FD8095982F0E94F6059B01AC01C701CE
:10043000B6010E94FC046B017C012D893E89B90143
:10044000882777FD8095982F0E94F6059B01AC01C7
:10045000C701B6010E94FC046B017C01AF89B88D15
:10046000BD01882777FD8095982F0E94F6059B0196
:10047000AC01C701B6010E94FC046B017C01E98D4F
:10048000FA8DBF01882777FD8095982F0E94F60589
:100490009B01AC01C701B6010E94FC0420E030E0E2
:1004A00040E251E40E9460054B015C0129813A81E0
:1004B000B901882777FD8095982F0E94F6056B017A
:1004C0007C01AB81BC81BD01882777FD8095982F89
:1004D0000E94F6059B01AC01C701B6010E94FC0415
:1004E0006B017C01ED81FE81BF01882777FD80953E
:1004F000982F0E94F6059B01AC01C701B6010E942E
:10050000FC046B017C012F813885B901882777FDB8
:100510008095982F0E94F6059B01AC01C701B6019A
:100520000E94FC046B017C01A985BA85BD01882766
:1005300077FD8095982F0E94F6059B01AC01C701BD
:10054000B6010E94FC046B017C01EB85FC85BF01B8
:10055000882777FD8095982F0E94F6059B01AC01B6
:10056000C701B6010E94FC046B017C012D853E850C
:10057000B901882777FD8095982F0E94F6059B0189
:10058000AC01C701B6010E94FC046B017C01AF8580
:10059000B889BD01882777FD8095982F0E94F605C0
:1005A0009B01AC01C701B6010E94FC046B017C01F8
:1005B000E989FA89BF01882777FD8095982F0E94E5
:1005C000F6059B01AC01C701B6010E94FC046B015A
:1005D0007C012B893C89B901882777FD8095982F6C
:1005E0000E94F6059B01AC01C701B6010E94FC0404
:1005F00020E030E040E251E40E9460059B01AC0144
:10060000C501B4010E94FC0420E030E040E05FE35B
:100610000E9482060E94C805DC01CB010E94950061
:100620006B017C0180E090E00E9472000E94AD00AE
:10063000A70196010F2EF8EDEF2EF2E2FF2EF5EE58
:100640000F2FFEE51F2FF02D0E94AB038FE794E8DC
:10065000AEE181509040A040E1F700C00000ADCD78
:1006600083E38093CC001092CD00539A88E180936D
:10067000C90086E08093CA000895E8ECF0E090811C
:1006800095FFFDCF8093CE000895E8ECF0E08081E7
:100690008823ECF78091CE0008958FE90E943D03F6
:1006A00082E80E943D038FE90E943D0383E80E9497
:1006B0003D0385EA0E943D030E9445038A3AE1F723
:1006C0000895EF92FF920F931F93CF93DF93F82E2D
:1006D000E92E8EEF0E943D030F2D1E2DC0E0D0E0CD
:1006E00006C0F80181918F010E943D032196EF2DF4
:1006F000FE2DDF010D900020E9F71197AE1BBF0B17
:10070000CA17DB0770F3DF91CF911F910F91FF9014
:10071000EF9008958FE90E943D0381E80E943D0318
:100720000895CF93DF93D82FC62F8FE90E943D0302
:100730008FEF0E943D038D2F0E943D038C2F0E945E
:100740003D03DF91CF9108958FE90E943D0385E637
:100750000E943D0308954F925F926F927F928F9215
:100760009F92AF92BF92CF92DF92EF92FF920F9340
:100770001F93CF93DF93CDB7DEB72A970FB6F894C8
:10078000DEBF0FBECDBF2B013C012F8338874987C9
:100790005A87470158010E94A40380E090E060E07E
:1007A00070E00E9491038DB79EB70A970FB6F89438
:1007B0009EBF0FBE8DBFEDB7FEB731968E010F5FA6
:1007C0001F4FADB7BEB712961C930E9311970F2E05
:1007D000F6E0EF2EFF24F02DF382E2820F2EF0E000
:1007E000CF2EF1E0DF2EF02DD582C48246825782D3
:1007F000608671860E94E5068DB79EB70A960FB691
:10080000F8949EBF0FBE8DBF83E091E00E9461030C
:10081000C8010E94610389E090E060E070E00E94FE
:100820009103ADB7BEB71A970FB6F894BEBF0FBE0F
:10083000ADBFEDB7FEB7319612961C930E9311978C
:10084000F382E282D582C4828F819885A985BA8598
:1008500086839783A087B1870E94E506ADB7BEB7B0
:100860001A960FB6F894BEBF0FBEADBF86E091E0FA
:100870000E946103C8010E94610382E090E061E090
:1008800070E00E9491038DB79EB70A970FB6F89457
:100890009EBF0FBE8DBFEDB7FEB73196ADB7BEB7E9
:1008A00012961C930E931197F382E282D582C48232
:1008B00086829782A086B1860E94E5068DB79EB794
:1008C0000A960FB6F8949EBF0FBE8DBF89E091E0E7
:1008D0000E946103C8010E9461032A960FB6F89432
:1008E000DEBF0FBECDBFDF91CF911F910F91FF9063
:1008F000EF90DF90CF90BF90AF909F908F907F90C0
:100900006F905F904F90089583E38093C40010929E
:10091000C500519A88E18093C10086E08093C200AF
:100920000895E0ECF0E0908195FFFDCF8093C60044
:100930000895E0ECF0E080818823ECF78091C60018
:100940000895EF92FF920F931F93CF93DF93F82EAA
:10095000E92E082F192FC0E0D0E006C0F8018191E0
:100960008F010E9491042196EF2DFE2DDF010D9045
:100970000020E9F71197AE1BBF0BCA17DB0770F316
:10098000DF91CF911F910F91FF90EF90089581E03B
:1009900088B98FE794E8AEE181509040A040E1F73C
:1009A00000C0000018B88FE794E8AEE18150904095
:1009B000A040E1F700C000000895389A0E94C704E3
:1009C000089584B5826084BDE1E8F0E080818560AF
:1009D000808387EA91E69093890080938800089548
:1009E00084B1817084B9E9E6F0E080818061808320
:1009F000EA9A789408955058BB27AA270ED048C188
:100A000039D130F03ED120F031F49F3F11F41EF483
:100A10002EC10EF4E095E7FB24C1E92F4AD180F303
:100A2000BA17620773078407950718F071F49EF5EB
:100A300062C10EF4E0950B2EBA2FA02D0B01B90167
:100A400090010C01CA01A0011124FF27591B99F044
:100A5000593F50F4503E68F11A16F040A22F232F50
:100A6000342F4427585FF3CF469537952795A795A0
:100A7000F0405395C9F77EF41F16BA0B620B730B47
:100A8000840BBAF09150A1F0FF0FBB1F661F771FB8
:100A9000881FC2F70EC0BA0F621F731F841F48F46D
:100AA000879577956795B795F7959E3F08F0B3CFF3
:100AB0009395880F08F09927EE0F979587950895DD
:100AC0000CD0E6C0DED040F0D5D030F021F45F3F4E
:100AD00019F0C7C0511110C1CAC0EBD098F39923C7
:100AE000C9F35523B1F3951B550BBB27AA276217F2
:100AF0007307840738F09F5F5F4F220F331F441F37
:100B0000AA1FA9F333D00E2E3AF0E0E830D091506E
:100B10005040E695001CCAF729D0FE2F27D0660F5B
:100B2000771F881FBB1F261737074807AB07B0E89A
:100B300009F0BB0B802DBF01FF2793585F4F2AF0B0
:100B40009E3F510568F08DC0D7C05F3FECF3983EE3
:100B5000DCF3869577956795B795F7959F5FC9F70D
:100B6000880F911D9695879597F90895E1E0660F96
:100B7000771F881FBB1F621773078407BA0720F00F
:100B8000621B730B840BBA0BEE1F88F7E095089578
:100B900098D088F09F5790F0B92F9927B751A0F0BF
:100BA000D1F0660F771F881F991F1AF0BA95C9F701
:100BB00012C0B13081F09FD0B1E008959CC0672F82
:100BC000782F8827B85F39F0B93FCCF386957795B1
:100BD0006795B395D9F73EF490958095709561959A
:100BE0007F4F8F4F9F4F0895E89409C097FB3EF4C5
:100BF00090958095709561957F4F8F4F9F4F99236A
:100C0000A9F0F92F96E9BB279395F69587957795E7
:100C10006795B795F111F8CFFAF4BB0F11F460FFA7
:100C20001BC06F5F7F4F8F4F9F4F16C0882311F0FF
:100C300096E911C0772321F09EE8872F762F05C013
:100C4000662371F096E8862F70E060E02AF09A95AE
:100C5000660F771F881FDAF7880F9695879597F9A3
:100C6000089597F99F6780E870E060E008959FEF2E
:100C700080EC089500240A94161617061806090633
:100C8000089500240A941216130614060506089502
:100C9000092E0394000C11F4882352F0BB0F40F48A
:100CA000BF2B11F460FF04C06F5F7F4F8F4F9F4FCA
:100CB000089557FD9058440F551F59F05F3F71F04C
:100CC0004795880F97FB991F61F09F3F79F08795B3
:100CD0000895121613061406551FF2CF4695F1DF3C
:100CE00008C0161617061806991FF1CF86957105CC
:100CF000610508940895E894BB2766277727CB0100
:100D000097F908950BD0C4CFB5DF28F0BADF18F0FB
:100D1000952309F0A6CFABCF1124EECFCADFA0F305
:100D2000959FD1F3950F50E0551F629FF001729F80
:100D3000BB27F00DB11D639FAA27F00DB11DAA1F9F
:100D4000649F6627B00DA11D661F829F2227B00DEC
:100D5000A11D621F739FB00DA11D621F839FA00D77
:100D6000611D221F749F3327A00D611D231F849FC7
:100D7000600D211D822F762F6A2F11249F5750401E
:100D80008AF0E1F088234AF0EE0FFF1FBB1F661FB9
:100D9000771F881F91505040A9F79E3F510570F072
:100DA00060CFAACF5F3FECF3983EDCF38695779552
:100DB0006795B795F795E7959F5FC1F7FE2B880F6D
:100DC000911D9695879597F908950F931F93CF934B
:100DD000DF93CDB7DEB72E970FB6F894DEBF0FBE08
:100DE000CDBF0D891E898F89988D26E02C831A83AB
:100DF000098397FF02C080E090E801979E838D836E
:100E0000AE01455E5F4FCE010196698D7A8D0E94DD
:100E100022074D815E8157FD0AC02F813885421718
:100E200053070CF49A01020F131FF80110822E963B
:100E30000FB6F894DEBF0FBECDBFDF91CF911F91EB
:100E40000F9108952F923F924F925F926F927F92EF
:100E50008F929F92AF92BF92CF92DF92EF92FF92CA
:100E60000F931F93CF93DF93CDB7DEB72D970FB6B8
:100E7000F894DEBF0FBECDBF3C017D876C875A0161
:100E8000FC0117821682838181FFC8C12E0108945C
:100E9000411C511CF3019381EC85FD8593FD8591E7
:100EA00093FF8191FD87EC87882309F4B3C18532D4
:100EB00041F493FD859193FF8191FD87EC87853205
:100EC00029F490E0B3010E943F09E4CFFF24EE240F
:100ED00010E01032B0F48B3269F08C3228F480329A
:100EE00051F0833271F40BC08D3239F0803349F404
:100EF00011602CC01260146029C0186027C01061F6
:100F000025C017FD2EC0282F20532A3098F416FF35
:100F100008C08F2D880FF82EFF0CFF0CF80EF20E74
:100F200015C08E2D880FE82EEE0CEE0CE80EE20EAA
:100F300010620CC08E3221F416FD6CC1106406C024
:100F40008C3611F4106802C0883659F4EC85FD85A2
:100F500093FD859193FF8191FD87EC87882309F0AC
:100F6000B8CF982F9554933018F09052933038F4AE
:100F700024E030E0A20EB31E3FE339830FC0833676
:100F800031F0833781F0833509F05AC022C0F50172
:100F90008081898322E030E0A20EB31E21E0C22EC0
:100FA000D12C420114C092E0292E312C2A0C3B1C7A
:100FB000F5018080918016FF03C06F2D70E002C0A4
:100FC0006FEF7FEFC4010E9434096C0151011F775C
:100FD00015C082E0282E312C2A0C3B1CF5018080A4
:100FE000918016FF03C06F2D70E002C06FEF7FEF9E
:100FF000C4010E9429096C011068510113FD1CC035
:1010000006C080E290E0B3010E943F09EA948E2D71
:1010100090E0C816D906A8F30FC0F40117FD85911A
:1010200017FF81914F0190E0B3010E943F09E11049
:10103000EA940894C108D108C114D10471F7E7C03B
:10104000843611F0893651F5F50117FF07C080810C
:101050009181A281B38124E030E008C08081918138
:10106000AA2797FDA095BA2F22E030E0A20EB31E6A
:10107000012F0F76B7FF08C0B095A0959095819588
:101080009F4FAF4FBF4F0068BC01CD01A2012AE0C6
:1010900030E00E946B09D82ED4183FC0853721F468
:1010A0001F7E2AE030E020C0197F8F36A9F08037FC
:1010B00020F4883509F0AEC00BC0803721F08837A6
:1010C00009F0A8C001C0106114FF09C0146007C076
:1010D00014FF08C0166006C028E030E005C020E11B
:1010E00030E002C020E132E0F50117FF07C0608167
:1010F00071818281938144E050E006C060817181FA
:1011000080E090E042E050E0A40EB51EA2010E94F3
:101110006B09D82ED418012F0F7706FF09C00E7F58
:10112000DF1430F404FF06C002FD04C00F7E02C0CD
:101130001D2D01C01F2D802F90E004FF0CC0FE016B
:10114000ED0DF11D2081203311F4097E09C002FF4D
:1011500006C01E5F05C086789070009709F01F5F7B
:10116000802E992403FD12C000FF0DC0FD2C1E151A
:1011700050F4FE0CF11A1E2D06C080E290E0B3017F
:101180000E943F091F5F1E15C0F304C01E1510F416
:10119000E11A01C0EE2484FE0FC080E390E0B301A9
:1011A0000E943F0982FE1FC081FE03C088E590E0D7
:1011B00010C088E790E00DC0C40186789070009759
:1011C00091F081FC02C080E201C08BE207FD8DE25C
:1011D00090E0B3010E943F0906C080E390E0B301B4
:1011E0000E943F09FA94DF14C0F3DA94F201ED0D86
:1011F000F11D808190E0B3010E943F09DD20A9F735
:1012000006C080E290E0B3010E943F09EA94EE201C
:10121000C1F740CEF3018681978102C08FEF9FEF27
:101220002D960FB6F894DEBF0FBECDBFDF91CF91E4
:101230001F910F91FF90EF90DF90CF90BF90AF90F4
:101240009F908F907F906F905F904F903F902F90E6
:101250000895FC010590615070400110D8F7809509
:1012600090958E0F9F1F0895FC0161507040019072
:101270000110D8F7809590958E0F9F1F08950F93BA
:101280001F93CF93DF938C01EB018B8181FF1BC0F8
:1012900082FF0DC02E813F818C819D8128173907E7
:1012A00064F4E881F9810193F983E88306C0E88555
:1012B000F985802F0995009731F48E819F810196E1
:1012C0009F838E8302C00FEF1FEFC801DF91CF9184
:1012D0001F910F910895FA01AA27283051F120316A
:1012E00081F1E8946F936E7F6E5F7F4F8F4F9F4FBA
:1012F000AF4FB1E03ED0B4E03CD0670F781F891FFC
:101300009A1FA11D680F791F8A1F911DA11D6A0FC9
:10131000711D811D911DA11D20D009F468943F917C
:101320002AE0269F11243019305D3193DEF6CF017B
:101330000895462F4770405D4193B3E00FD0C9F741
:10134000F6CF462F4F70405D4A3318F0495D31FDAE
:101350004052419302D0A9F7EACFB4E0A695979501
:10136000879577956795BA95C9F7009761057105D7
:1013700008959B01AC010A2E069457954795379521
:101380002795BA95C9F7620F731F841F951FA01D7B
:061390000895F894FFCF60
:10139600256600563A00493A00506F7765723A0062
:00000001FF
